:100000000C9456000C9473000C9473000C947300C1
:100010000C9473000C9473000C9473000C94730094
:100020000C9473000C9473000C9473000C94730084
:100030000C9473000C9473000C9473000C94730074
:100040000C9473000C9473000C9473000C94730064
:100050000C9473000C9473000C9473000C94730054
:100060000C9473000C9473000C9473000C94730044
:100070000C9473000C9438020C9473000C9473006D
:100080000C9473000C9473000C9473000C94730024
:100090000C9473000C9473000C9473000C94730014
:1000A0000C9473000C9473000C94730011241FBE05
:1000B000CFEFDAE0DEBFCDBF11E0A0E0B1E0E6E1D6
:1000C000FBE002C005900D92A433B107D9F721E0FF
:1000D000A4E3B1E001C01D92A735B207E1F70E9489
:1000E0003E010C9489050C94000000000000089566
:1000F0000000000000000000000000000000000000
:1001000000000000000000008A95803089F7089503
:10011000282F8AEFEDDF8AEFEBDF8AEFE9DF8AEF46
:10012000E7DF2A952030A9F70895382F8AEFF0DF0E
:100130008AEFEEDF8AEFECDF8AEFEADF3A953030C4
:10014000A9F708950E940E020E94F5000895EF920B
:10015000FF920F931F93CF937C018B01C42F80E0FC
:100160000E94EF000E94E700C7010E942D0160E09D
:1001700081E00E942301C8010E942D01CC2319F0C7
:1001800081E00E949500CF911F910F91FF90EF9019
:10019000089591B39F70807F892B81BB5F9A0E94E5
:1001A00075005F980895CF93C62F811102C05E98A5
:1001B00001C05E9A8C2F0E94C9008C2F8295807F8F
:1001C0000E94C9008DE20E947800CF91089561E0FD
:1001D00080E00E94D30082E00E9488000895682F8A
:1001E0006F6080E00E94D300089580EF80BB80ECB8
:1001F0008AB984E10E9488005E9880E30E94C90069
:100200008AE00E94880080E30E94C9008AE00E9480
:10021000880080E30E94C9008AE00E94880080E292
:100220000E94C9008DE20E94780068E280E00E948E
:10023000D30080E00E94EF000E94E70066E080E0CB
:100240000E94D300089520E4829FC00111246068B9
:10025000682B80E00E94D3000895CF93DF93FC01C8
:100260006081662341F0EC01219681E00E94D30079
:1002700069916111FACFDF91CF9108950E94A20098
:100280000E9448020E94F201C0E00F2EF5E2CF2E3C
:10029000F02D0F2EF0E0EF2EF1E0FF2EF02D05E314
:1002A00011E0BB24B3946894AA24A1F801C0CA2D1C
:1002B0000E941202D82E0E946B02D82FC13089F101
:1002C00020F0C23009F462C0F3CF1F92CF921F9288
:1002D0008F93FF92EF921F930F930E949F028AE0E9
:1002E000E5E0F1E0A6E4B1E001900D928A95E1F736
:1002F00040E0B80186E491E00E94A70080E00E94FF
:1003000004022DB73EB7285F3F4F0FB6F8943EBFAB
:100310000FBE2DBFD110CCCFCB2DDD2349F2C0E0D5
:10032000C7CF80E00E9404021F92CF921F92DF93FA
:10033000FF92EF921F930F930E949F0289E0EFE0DC
:10034000F1E0A6E4B1E001900D928A95E1F740E07A
:10035000B80186E491E00E94A7008DB79EB7089689
:100360000FB6F8949EBF0FBE8DBFD111A0CF92E300
:10037000D91204C080E00E9404029ACF0E941202A7
:10038000CB2D813309F094CFC0E092CF0E940402BC
:100390001F92CF921F92DF93FF92EF921F930F93C2
:1003A0000E949F028FE0E8E1F1E0A6E4B1E0019055
:1003B0000D928A95E1F740E066E471E085E091E016
:1003C0000E94A7000E9412022DB73EB7285F3F4F40
:1003D0000FB6F8943EBF0FBE2DBF813309F068CF32
:1003E000C0E066CF3E9AE0E9F0E0808180688083DB
:1003F000808181608083E1E9F0E080818860808392
:100400008081836080830895819599E2899F812D01
:10041000112482958F708093980008951DB880EF05
:1004200084B908950F931F93CF93DF93C0E0D0E07A
:1004300085B1282F2F70CE0182959295907F9827B5
:10044000807F9827822B85B98AE00E948800669B6E
:1004500005C0FE01E95DFE4F808105C02196CC30CC
:10046000D10531F780E0DF91CF911F910F91089571
:100470001F920F920FB60F9211248F9380917900E3
:10048000809334018F910F900FBE0F901F9018959D
:10049000ECE7F0E0808180648083808181608083EC
:1004A000808180628083EAE7F0E0808187608083DA
:1004B0008081806280838081886080838081806881
:1004C000808382E080937E001092D80078948081AF
:1004D0008064808308958091340124E6829FC00166
:1004E00011246FEF70E00E947702862F089597FB2A
:1004F000072E16F4009407D077FD09D00E948B02D6
:1005000007FC05D03EF4909581959F4F0895709516
:1005100061957F4F0895AA1BBB1B51E107C0AA1F1D
:10052000BB1FA617B70710F0A61BB70B881F991F94
:100530005A95A9F780959095BC01CD010895AEE03C
:10054000B0E0E5EAF2E00C9460050D891E8986E0D2
:100550008C831A8309838FEF9FE79E838D83AE017F
:10056000475E5F4F6F89788DCE0101960E94C10270
:10057000EF81F885E00FF11F10822E96E4E00C94D5
:100580007C05ABE0B0E0E7ECF2E00C9452056C01C6
:100590007B018A01FC0117821682838181FFCCC115
:1005A000CE0101963C01F6019381F70193FD8591FF
:1005B00093FF81917F01882309F4BAC1853239F410
:1005C00093FD859193FF81917F01853229F4B601D6
:1005D00090E00E94B804E7CF912C212C312CFFE150
:1005E000F315D8F08B3279F038F4803279F0833219
:1005F000A1F4232D20611DC08D3261F0803369F498
:10060000232D216016C0832D8260382EE32DE460F7
:100610003E2E2AC0F32DF8601DC037FC2DC020ED02
:10062000280F2A3040F08E32B9F436FC81C1232DD8
:100630002064322E19C036FE06C08AE0989E200D36
:100640001124922E11C0EAE02E9E200D1124222E9C
:10065000F32DF0623F2E08C08C3621F4832D806884
:10066000382E02C0883641F4F70193FD859193FF3F
:1006700081917F018111B3CF982F9F7D9554933045
:1006800028F40C5F1F4F9FE399830DC0833631F030
:10069000833771F0833509F059C021C0F80180819A
:1006A00089830E5F1F4F88248394912C530113C0BC
:1006B0002801F2E04F0E511CF801A080B18036FEF7
:1006C00003C0692D70E002C06FEF7FEFC5010E948B
:1006D000AD044C018201F32DFF773F2E16C0280197
:1006E00022E0420E511CF801A080B18036FE03C00A
:1006F000692D70E002C06FEF7FEFC5010E94A20478
:100700004C01F32DF0683F2E820133FC1BC0822D7B
:1007100090E088169906B0F4B60180E290E00E945D
:10072000B8042A94F4CFF50137FC859137FE819106
:100730005F01B60190E00E94B80421102A9421E0E4
:10074000821A91088114910471F7E8C0843611F07F
:10075000893641F5F80137FE07C0608171818281D9
:1007600093810C5F1F4F08C060817181072E000CC0
:10077000880B990B0E5F1F4FF32DFF763F2E97FFCF
:1007800009C090958095709561957F4F8F4F9F4FD1
:10079000F0683F2E2AE030E0A3010E94F404882E86
:1007A000861845C0853731F4232D2F7EB22E2AE0DE
:1007B00030E025C0932D997FB92E8F36C1F018F403
:1007C000883579F0B5C0803719F0883721F0B0C08E
:1007D000E92FE061BE2EB4FE0DC0FB2DF460BF2EEC
:1007E00009C034FE0AC0292F2660B22E06C028E0B8
:1007F00030E005C020E130E002C020E132E0F80145
:10080000B7FE07C060817181828193810C5F1F4FA9
:1008100006C06081718180E090E00E5F1F4FA301F0
:100820000E94F404882E8618FB2DFF773F2E36FE9B
:100830000DC0232D2E7FA22E891458F434FE0BC038
:1008400032FC09C0832D8E7EA82E05C0B82CA32CA7
:1008500003C0B82C01C0B92CA4FE0FC0FE01E80DE6
:10086000F11D8081803321F49A2D997EA92E09C033
:10087000A2FE06C0B394B39404C08A2D867809F012
:10088000B394A3FC11C0A0FE06C0B21488F4280CD7
:10089000922C9B180EC0B21460F4B60180E290E076
:1008A0000E94B804B394F7CFB21418F42B1802C006
:1008B000982C212CA4FE10C0B60180E390E00E9489
:1008C000B804A2FE17C0A1FC03C088E790E002C0F4
:1008D00088E590E0B6010CC08A2D867859F0A1FE1B
:1008E00002C08BE201C080E2A7FC8DE2B60190E07D
:1008F0000E94B804891438F4B60180E390E00E94A5
:10090000B8049A94F7CF8A94F301E80DF11D808121
:10091000B60190E00E94B8048110F5CF222009F4BE
:1009200042CEB60180E290E00E94B8042A94F6CF4D
:10093000F6018681978102C08FEF9FEF2B96E2E14F
:100940000C946E05FC010590615070400110D8F7C1
:10095000809590958E0F9F1F0895FC016150704007
:1009600001900110D8F7809590958E0F9F1F0895E4
:100970000F931F93CF93DF93FB01238121FD03C0CE
:100980008FEF9FEF2CC022FF16C046815781248134
:1009900035814217530744F4A081B1819D012F5F37
:1009A0003F4F318320838C93268137812F5F3F4FC8
:1009B0003783268314C08B01EC01FB010084F18591
:1009C000E02D0995892BE1F6D80116968D919C9121
:1009D0001797019617969C938E931697CE01DF91E9
:1009E000CF911F910F910895FA01AA27283051F154
:1009F000203181F1E8946F936E7F6E5F7F4F8F4F50
:100A00009F4FAF4FB1E03ED0B4E03CD0670F781FAE
:100A1000891F9A1FA11D680F791F8A1F911DA11D93
:100A20006A0F711D811D911DA11D20D009F46894CC
:100A30003F912AE0269F11243019305D3193DEF674
:100A4000CF010895462F4770405D4193B3E00FD02A
:100A5000C9F7F6CF462F4F70405D4A3318F0495D15
:100A600031FD4052419302D0A9F7EACFB4E0A695F8
:100A70009795879577956795BA95C9F7009761051A
:100A8000710508959B01AC010A2E06945795479570
:100A900037952795BA95C9F7620F731F841F951F65
:100AA000A01D08952F923F924F925F926F927F9276
:100AB0008F929F92AF92BF92CF92DF92EF92FF926E
:100AC0000F931F93CF93DF93CDB7DEB7CA1BDB0B1A
:100AD0000FB6F894DEBF0FBECDBF09942A883988BF
:100AE00048885F846E847D848C849B84AA84B984C6
:100AF000C884DF80EE80FD800C811B81AA81B981D2
:100B0000CE0FD11D0FB6F894DEBF0FBECDBFED01E5
:060B10000895F894FFCFE8
:100B160025752563004D6F746F72204F4646004D54
:100B26006F746F72204F4E006D6F746F7220527526
:100B36006E6E6E696E67003134372A32353830335F
:040B46003639230019
:00000001FF
